{
    "contractName": "MyEpicGame",
    "abi": [
        {
            "inputs": [
                {
                    "internalType": "string[]",
                    "name": "characterNames",
                    "type": "string[]"
                },
                {
                    "internalType": "string[]",
                    "name": "characterImageURIs",
                    "type": "string[]"
                },
                {
                    "internalType": "uint256[]",
                    "name": "characterHp",
                    "type": "uint256[]"
                },
                {
                    "internalType": "uint256[]",
                    "name": "characterAttackDmg",
                    "type": "uint256[]"
                }
            ],
            "stateMutability": "nonpayable",
            "type": "constructor"
        },
        {
            "anonymous": false,
            "inputs": [
                {
                    "indexed": true,
                    "internalType": "address",
                    "name": "owner",
                    "type": "address"
                },
                {
                    "indexed": true,
                    "internalType": "address",
                    "name": "approved",
                    "type": "address"
                },
                {
                    "indexed": true,
                    "internalType": "uint256",
                    "name": "tokenId",
                    "type": "uint256"
                }
            ],
            "name": "Approval",
            "type": "event"
        },
        {
            "anonymous": false,
            "inputs": [
                {
                    "indexed": true,
                    "internalType": "address",
                    "name": "owner",
                    "type": "address"
                },
                {
                    "indexed": true,
                    "internalType": "address",
                    "name": "operator",
                    "type": "address"
                },
                {
                    "indexed": false,
                    "internalType": "bool",
                    "name": "approved",
                    "type": "bool"
                }
            ],
            "name": "ApprovalForAll",
            "type": "event"
        },
        {
            "anonymous": false,
            "inputs": [
                {
                    "indexed": true,
                    "internalType": "address",
                    "name": "from",
                    "type": "address"
                },
                {
                    "indexed": true,
                    "internalType": "address",
                    "name": "to",
                    "type": "address"
                },
                {
                    "indexed": true,
                    "internalType": "uint256",
                    "name": "tokenId",
                    "type": "uint256"
                }
            ],
            "name": "Transfer",
            "type": "event"
        },
        {
            "inputs": [
                {
                    "internalType": "address",
                    "name": "to",
                    "type": "address"
                },
                {
                    "internalType": "uint256",
                    "name": "tokenId",
                    "type": "uint256"
                }
            ],
            "name": "approve",
            "outputs": [],
            "stateMutability": "nonpayable",
            "type": "function"
        },
        {
            "inputs": [
                {
                    "internalType": "address",
                    "name": "owner",
                    "type": "address"
                }
            ],
            "name": "balanceOf",
            "outputs": [
                {
                    "internalType": "uint256",
                    "name": "",
                    "type": "uint256"
                }
            ],
            "stateMutability": "view",
            "type": "function"
        },
        {
            "inputs": [
                {
                    "internalType": "uint256",
                    "name": "tokenId",
                    "type": "uint256"
                }
            ],
            "name": "getApproved",
            "outputs": [
                {
                    "internalType": "address",
                    "name": "",
                    "type": "address"
                }
            ],
            "stateMutability": "view",
            "type": "function"
        },
        {
            "inputs": [
                {
                    "internalType": "address",
                    "name": "owner",
                    "type": "address"
                },
                {
                    "internalType": "address",
                    "name": "operator",
                    "type": "address"
                }
            ],
            "name": "isApprovedForAll",
            "outputs": [
                {
                    "internalType": "bool",
                    "name": "",
                    "type": "bool"
                }
            ],
            "stateMutability": "view",
            "type": "function"
        },
        {
            "inputs": [
                {
                    "internalType": "uint256",
                    "name": "_characterIndex",
                    "type": "uint256"
                }
            ],
            "name": "mintCharacterNFT",
            "outputs": [],
            "stateMutability": "nonpayable",
            "type": "function"
        },
        {
            "inputs": [],
            "name": "name",
            "outputs": [
                {
                    "internalType": "string",
                    "name": "",
                    "type": "string"
                }
            ],
            "stateMutability": "view",
            "type": "function"
        },
        {
            "inputs": [
                {
                    "internalType": "uint256",
                    "name": "",
                    "type": "uint256"
                }
            ],
            "name": "nftHolderAttributes",
            "outputs": [
                {
                    "internalType": "uint256",
                    "name": "characterIndex",
                    "type": "uint256"
                },
                {
                    "internalType": "string",
                    "name": "name",
                    "type": "string"
                },
                {
                    "internalType": "string",
                    "name": "imageURI",
                    "type": "string"
                },
                {
                    "internalType": "uint256",
                    "name": "hp",
                    "type": "uint256"
                },
                {
                    "internalType": "uint256",
                    "name": "maxHp",
                    "type": "uint256"
                },
                {
                    "internalType": "uint256",
                    "name": "attackDamage",
                    "type": "uint256"
                }
            ],
            "stateMutability": "view",
            "type": "function"
        },
        {
            "inputs": [
                {
                    "internalType": "address",
                    "name": "",
                    "type": "address"
                }
            ],
            "name": "nftHolders",
            "outputs": [
                {
                    "internalType": "uint256",
                    "name": "",
                    "type": "uint256"
                }
            ],
            "stateMutability": "view",
            "type": "function"
        },
        {
            "inputs": [
                {
                    "internalType": "uint256",
                    "name": "tokenId",
                    "type": "uint256"
                }
            ],
            "name": "ownerOf",
            "outputs": [
                {
                    "internalType": "address",
                    "name": "",
                    "type": "address"
                }
            ],
            "stateMutability": "view",
            "type": "function"
        },
        {
            "inputs": [
                {
                    "internalType": "address",
                    "name": "from",
                    "type": "address"
                },
                {
                    "internalType": "address",
                    "name": "to",
                    "type": "address"
                },
                {
                    "internalType": "uint256",
                    "name": "tokenId",
                    "type": "uint256"
                }
            ],
            "name": "safeTransferFrom",
            "outputs": [],
            "stateMutability": "nonpayable",
            "type": "function"
        },
        {
            "inputs": [
                {
                    "internalType": "address",
                    "name": "from",
                    "type": "address"
                },
                {
                    "internalType": "address",
                    "name": "to",
                    "type": "address"
                },
                {
                    "internalType": "uint256",
                    "name": "tokenId",
                    "type": "uint256"
                },
                {
                    "internalType": "bytes",
                    "name": "data",
                    "type": "bytes"
                }
            ],
            "name": "safeTransferFrom",
            "outputs": [],
            "stateMutability": "nonpayable",
            "type": "function"
        },
        {
            "inputs": [
                {
                    "internalType": "address",
                    "name": "operator",
                    "type": "address"
                },
                {
                    "internalType": "bool",
                    "name": "approved",
                    "type": "bool"
                }
            ],
            "name": "setApprovalForAll",
            "outputs": [],
            "stateMutability": "nonpayable",
            "type": "function"
        },
        {
            "inputs": [
                {
                    "internalType": "bytes4",
                    "name": "interfaceId",
                    "type": "bytes4"
                }
            ],
            "name": "supportsInterface",
            "outputs": [
                {
                    "internalType": "bool",
                    "name": "",
                    "type": "bool"
                }
            ],
            "stateMutability": "view",
            "type": "function"
        },
        {
            "inputs": [],
            "name": "symbol",
            "outputs": [
                {
                    "internalType": "string",
                    "name": "",
                    "type": "string"
                }
            ],
            "stateMutability": "view",
            "type": "function"
        },
        {
            "inputs": [
                {
                    "internalType": "uint256",
                    "name": "_tokenId",
                    "type": "uint256"
                }
            ],
            "name": "tokenURI",
            "outputs": [
                {
                    "internalType": "string",
                    "name": "",
                    "type": "string"
                }
            ],
            "stateMutability": "view",
            "type": "function"
        },
        {
            "inputs": [
                {
                    "internalType": "address",
                    "name": "from",
                    "type": "address"
                },
                {
                    "internalType": "address",
                    "name": "to",
                    "type": "address"
                },
                {
                    "internalType": "uint256",
                    "name": "tokenId",
                    "type": "uint256"
                }
            ],
            "name": "transferFrom",
            "outputs": [],
            "stateMutability": "nonpayable",
            "type": "function"
        }
    ],
    "bytecode": "60806040523480156200001157600080fd5b50604051620029a7380380620029a783398101604081905262000034916200064e565b604051806040016040528060068152602001654865726f657360d01b815250604051806040016040528060048152602001634845524f60e01b815250816000908162000081919062000796565b50600162000090828262000796565b50505060005b8451811015620003af5760076040518060c00160405280838152602001878481518110620000c857620000c862000862565b60200260200101518152602001868481518110620000ea57620000ea62000862565b602002602001015181526020018584815181106200010c576200010c62000862565b602002602001015181526020018584815181106200012e576200012e62000862565b6020026020010151815260200184848151811062000150576200015062000862565b602090810291909101810151909152825460018181018555600094855293829020835160069092020190815590820151919290919082019062000194908262000796565b5060408201516002820190620001ab908262000796565b50606082015181600301556080820151816004015560a082015181600501555050600060078281548110620001e457620001e462000862565b90600052602060002090600602016040518060c001604052908160008201548152602001600182018054620002199062000707565b80601f0160208091040260200160405190810160405280929190818152602001828054620002479062000707565b8015620002985780601f106200026c5761010080835404028352916020019162000298565b820191906000526020600020905b8154815290600101906020018083116200027a57829003601f168201915b50505050508152602001600282018054620002b39062000707565b80601f0160208091040260200160405190810160405280929190818152602001828054620002e19062000707565b8015620003325780601f10620003065761010080835404028352916020019162000332565b820191906000526020600020905b8154815290600101906020018083116200031457829003601f168201915b5050505050815260200160038201548152602001600482015481526020016005820154815250509050620003996040518060600160405280602581526020016200298260259139826020015183606001518460400151620003d160201b62000c621760201c565b50620003a760018262000878565b905062000096565b50620003c760066200042860201b62000cab1760201c565b505050506200091e565b6200042284848484604051602401620003ee9493929190620008ce565b60408051601f198184030181529190526020810180516001600160e01b03908116632e8d4b8d60e11b179091526200043116565b50505050565b80546001019055565b80516a636f6e736f6c652e6c6f67602083016000808483855afa5050505050565b634e487b7160e01b600052604160045260246000fd5b604051601f8201601f191681016001600160401b038111828210171562000493576200049362000452565b604052919050565b60006001600160401b03821115620004b757620004b762000452565b5060051b60200190565b60005b83811015620004de578181015183820152602001620004c4565b50506000910152565b6000601f8381840112620004fa57600080fd5b82516020620005136200050d836200049b565b62000468565b82815260059290921b850181019181810190878411156200053357600080fd5b8287015b84811015620005d55780516001600160401b0380821115620005595760008081fd5b818a0191508a603f8301126200056f5760008081fd5b8582015160408282111562000588576200058862000452565b6200059b828b01601f1916890162000468565b92508183528c81838601011115620005b35760008081fd5b620005c482898501838701620004c1565b505084525091830191830162000537565b50979650505050505050565b600082601f830112620005f357600080fd5b81516020620006066200050d836200049b565b82815260059290921b840181019181810190868411156200062657600080fd5b8286015b848110156200064357805183529183019183016200062a565b509695505050505050565b600080600080608085870312156200066557600080fd5b84516001600160401b03808211156200067d57600080fd5b6200068b88838901620004e7565b95506020870151915080821115620006a257600080fd5b620006b088838901620004e7565b94506040870151915080821115620006c757600080fd5b620006d588838901620005e1565b93506060870151915080821115620006ec57600080fd5b50620006fb87828801620005e1565b91505092959194509250565b600181811c908216806200071c57607f821691505b6020821081036200073d57634e487b7160e01b600052602260045260246000fd5b50919050565b601f8211156200079157600081815260208120601f850160051c810160208610156200076c5750805b601f850160051c820191505b818110156200078d5782815560010162000778565b5050505b505050565b81516001600160401b03811115620007b257620007b262000452565b620007ca81620007c3845462000707565b8462000743565b602080601f831160018114620008025760008415620007e95750858301515b600019600386901b1c1916600185901b1785556200078d565b600085815260208120601f198616915b82811015620008335788860151825594840194600190910190840162000812565b5085821015620008525787850151600019600388901b60f8161c191681555b5050505050600190811b01905550565b634e487b7160e01b600052603260045260246000fd5b808201808211156200089a57634e487b7160e01b600052601160045260246000fd5b92915050565b60008151808452620008ba816020860160208601620004c1565b601f01601f19169290920160200192915050565b608081526000620008e36080830187620008a0565b8281036020840152620008f78187620008a0565b90508460408401528281036060840152620009138185620008a0565b979650505050505050565b612054806200092e6000396000f3fe608060405234801561001057600080fd5b50600436106101005760003560e01c80637df124a111610097578063b88d4fde11610066578063b88d4fde1461023c578063c87b56dd1461024f578063e985e9c514610262578063f8b81ef71461027557600080fd5b80637df124a1146101dc57806395d89b41146101fc57806398da4c9514610204578063a22cb4651461022957600080fd5b806323b872dd116100d357806323b872dd1461018257806342842e0e146101955780636352211e146101a857806370a08231146101bb57600080fd5b806301ffc9a71461010557806306fdde031461012d578063081812fc14610142578063095ea7b31461016d575b600080fd5b61011861011336600461170e565b610288565b60405190151581526020015b60405180910390f35b6101356102da565b6040516101249190611782565b610155610150366004611795565b61036c565b6040516001600160a01b039091168152602001610124565b61018061017b3660046117ca565b610393565b005b6101806101903660046117f4565b6104ad565b6101806101a33660046117f4565b6104de565b6101556101b6366004611795565b6104f9565b6101ce6101c9366004611830565b610559565b604051908152602001610124565b6101ce6101ea366004611830565b60096020526000908152604090205481565b6101356105df565b610217610212366004611795565b6105ee565b6040516101249695949392919061184b565b610180610237366004611895565b610733565b61018061024a3660046118e7565b610742565b61013561025d366004611795565b61077a565b6101186102703660046119c3565b61098b565b610180610283366004611795565b6109b9565b60006001600160e01b031982166380ac58cd60e01b14806102b957506001600160e01b03198216635b5e139f60e01b145b806102d457506301ffc9a760e01b6001600160e01b03198316145b92915050565b6060600080546102e9906119f6565b80601f0160208091040260200160405190810160405280929190818152602001828054610315906119f6565b80156103625780601f1061033757610100808354040283529160200191610362565b820191906000526020600020905b81548152906001019060200180831161034557829003601f168201915b5050505050905090565b600061037782610cb4565b506000908152600460205260409020546001600160a01b031690565b600061039e826104f9565b9050806001600160a01b0316836001600160a01b0316036104105760405162461bcd60e51b815260206004820152602160248201527f4552433732313a20617070726f76616c20746f2063757272656e74206f776e656044820152603960f91b60648201526084015b60405180910390fd5b336001600160a01b038216148061042c575061042c813361098b565b61049e5760405162461bcd60e51b815260206004820152603d60248201527f4552433732313a20617070726f76652063616c6c6572206973206e6f7420746f60448201527f6b656e206f776e6572206f7220617070726f76656420666f7220616c6c0000006064820152608401610407565b6104a88383610d16565b505050565b6104b73382610d84565b6104d35760405162461bcd60e51b815260040161040790611a30565b6104a8838383610de3565b6104a883838360405180602001604052806000815250610742565b6000818152600260205260408120546001600160a01b0316806102d45760405162461bcd60e51b8152602060048201526018602482015277115490cdcc8c4e881a5b9d985b1a59081d1bdad95b88125160421b6044820152606401610407565b60006001600160a01b0382166105c35760405162461bcd60e51b815260206004820152602960248201527f4552433732313a2061646472657373207a65726f206973206e6f7420612076616044820152683634b21037bbb732b960b91b6064820152608401610407565b506001600160a01b031660009081526003602052604090205490565b6060600180546102e9906119f6565b60086020526000908152604090208054600182018054919291610610906119f6565b80601f016020809104026020016040519081016040528092919081815260200182805461063c906119f6565b80156106895780601f1061065e57610100808354040283529160200191610689565b820191906000526020600020905b81548152906001019060200180831161066c57829003601f168201915b50505050509080600201805461069e906119f6565b80601f01602080910402602001604051908101604052809291908181526020018280546106ca906119f6565b80156107175780601f106106ec57610100808354040283529160200191610717565b820191906000526020600020905b8154815290600101906020018083116106fa57829003601f168201915b5050505050908060030154908060040154908060050154905086565b61073e338383610f54565b5050565b61074c3383610d84565b6107685760405162461bcd60e51b815260040161040790611a30565b61077484848484611022565b50505050565b6000818152600860209081526040808320815160c081019092528054825260018101805460609594840191906107af906119f6565b80601f01602080910402602001604051908101604052809291908181526020018280546107db906119f6565b80156108285780601f106107fd57610100808354040283529160200191610828565b820191906000526020600020905b81548152906001019060200180831161080b57829003601f168201915b50505050508152602001600282018054610841906119f6565b80601f016020809104026020016040519081016040528092919081815260200182805461086d906119f6565b80156108ba5780601f1061088f576101008083540402835291602001916108ba565b820191906000526020600020905b81548152906001019060200180831161089d57829003601f168201915b505050505081526020016003820154815260200160048201548152602001600582015481525050905060006108f28260600151611055565b905060006109038360800151611055565b905060006109148460a00151611055565b9050600061095a856020015161092989611055565b876040015187878760405160200161094696959493929190611a99565b6040516020818303038152906040526110e8565b905060008160405160200161096f9190611c72565b60408051601f1981840301815291905298975050505050505050565b6001600160a01b03918216600090815260056020908152604080832093909416825291909152205460ff1690565b60006109c460065490565b90506109d0338261124d565b6040518060c00160405280838152602001600784815481106109f4576109f4611cb7565b90600052602060002090600602016001018054610a10906119f6565b80601f0160208091040260200160405190810160405280929190818152602001828054610a3c906119f6565b8015610a895780601f10610a5e57610100808354040283529160200191610a89565b820191906000526020600020905b815481529060010190602001808311610a6c57829003601f168201915b5050505050815260200160078481548110610aa657610aa6611cb7565b90600052602060002090600602016002018054610ac2906119f6565b80601f0160208091040260200160405190810160405280929190818152602001828054610aee906119f6565b8015610b3b5780601f10610b1057610100808354040283529160200191610b3b565b820191906000526020600020905b815481529060010190602001808311610b1e57829003601f168201915b5050505050815260200160078481548110610b5857610b58611cb7565b906000526020600020906006020160030154815260200160078481548110610b8257610b82611cb7565b906000526020600020906006020160040154815260200160078481548110610bac57610bac611cb7565b6000918252602080832060056006909302019190910154909252838152600882526040902082518155908201516001820190610be89082611d1b565b5060408201516002820190610bfd9082611d1b565b50606082015181600301556080820151816004015560a08201518160050155905050610c426040518060600160405280602e8152602001611ff1602e91398284611267565b33600090815260096020526040902081905561073e600680546001019055565b61077484848484604051602401610c7c9493929190611ddb565b60408051601f198184030181529190526020810180516001600160e01b0316632e8d4b8d60e11b1790526112aa565b80546001019055565b6000818152600260205260409020546001600160a01b0316610d135760405162461bcd60e51b8152602060048201526018602482015277115490cdcc8c4e881a5b9d985b1a59081d1bdad95b88125160421b6044820152606401610407565b50565b600081815260046020526040902080546001600160a01b0319166001600160a01b0384169081179091558190610d4b826104f9565b6001600160a01b03167f8c5be1e5ebec7d5bd14f71427d1e84f3dd0314c0f7b2291e5b200ac8c7c3b92560405160405180910390a45050565b600080610d90836104f9565b9050806001600160a01b0316846001600160a01b03161480610db75750610db7818561098b565b80610ddb5750836001600160a01b0316610dd08461036c565b6001600160a01b0316145b949350505050565b826001600160a01b0316610df6826104f9565b6001600160a01b031614610e1c5760405162461bcd60e51b815260040161040790611e25565b6001600160a01b038216610e7e5760405162461bcd60e51b8152602060048201526024808201527f4552433732313a207472616e7366657220746f20746865207a65726f206164646044820152637265737360e01b6064820152608401610407565b610e8b83838360016112cb565b826001600160a01b0316610e9e826104f9565b6001600160a01b031614610ec45760405162461bcd60e51b815260040161040790611e25565b600081815260046020908152604080832080546001600160a01b03199081169091556001600160a01b0387811680865260038552838620805460001901905590871680865283862080546001019055868652600290945282852080549092168417909155905184937fddf252ad1be2c89b69c2b068fc378daa952ba7f163c4a11628f55a4df523b3ef91a4505050565b816001600160a01b0316836001600160a01b031603610fb55760405162461bcd60e51b815260206004820152601960248201527f4552433732313a20617070726f766520746f2063616c6c6572000000000000006044820152606401610407565b6001600160a01b03838116600081815260056020908152604080832094871680845294825291829020805460ff191686151590811790915591519182527f17307eab39ab6107e8899845ad3d59bd9653f200f220920489ca2b5937696c31910160405180910390a3505050565b61102d848484610de3565b61103984848484611353565b6107745760405162461bcd60e51b815260040161040790611e6a565b6060600061106283611454565b600101905060008167ffffffffffffffff811115611082576110826118d1565b6040519080825280601f01601f1916602001820160405280156110ac576020820181803683370190505b5090508181016020015b600019016f181899199a1a9b1b9c1cb0b131b232b360811b600a86061a8153600a85049450846110b657509392505050565b6060815160000361110757505060408051602081019091526000815290565b6000604051806060016040528060408152602001611fb160409139905060006003845160026111369190611ed2565b6111409190611ee5565b61114b906004611f07565b9050600061115a826020611ed2565b67ffffffffffffffff811115611172576111726118d1565b6040519080825280601f01601f19166020018201604052801561119c576020820181803683370190505b509050818152600183018586518101602084015b81831015611208576003830192508251603f8160121c168501518253600182019150603f81600c1c168501518253600182019150603f8160061c168501518253600182019150603f81168501518253506001016111b0565b60038951066001811461122257600281146112335761123f565b613d3d60f01b60011983015261123f565b603d60f81b6000198301525b509398975050505050505050565b61073e82826040518060200160405280600081525061152c565b6104a883838360405160240161127f93929190611f1e565b60408051601f198184030181529190526020810180516001600160e01b031663ca47c4eb60e01b1790525b80516a636f6e736f6c652e6c6f67602083016000808483855afa5050505050565b6001811115610774576001600160a01b03841615611311576001600160a01b0384166000908152600360205260408120805483929061130b908490611f43565b90915550505b6001600160a01b03831615610774576001600160a01b03831660009081526003602052604081208054839290611348908490611ed2565b909155505050505050565b60006001600160a01b0384163b1561144957604051630a85bd0160e11b81526001600160a01b0385169063150b7a0290611397903390899088908890600401611f56565b6020604051808303816000875af19250505080156113d2575060408051601f3d908101601f191682019092526113cf91810190611f93565b60015b61142f573d808015611400576040519150601f19603f3d011682016040523d82523d6000602084013e611405565b606091505b5080516000036114275760405162461bcd60e51b815260040161040790611e6a565b805181602001fd5b6001600160e01b031916630a85bd0160e11b149050610ddb565b506001949350505050565b60008072184f03e93ff9f4daa797ed6e38ed64bf6a1f0160401b83106114935772184f03e93ff9f4daa797ed6e38ed64bf6a1f0160401b830492506040015b6d04ee2d6d415b85acef810000000083106114bf576d04ee2d6d415b85acef8100000000830492506020015b662386f26fc1000083106114dd57662386f26fc10000830492506010015b6305f5e10083106114f5576305f5e100830492506008015b612710831061150957612710830492506004015b6064831061151b576064830492506002015b600a83106102d45760010192915050565b611536838361155f565b6115436000848484611353565b6104a85760405162461bcd60e51b815260040161040790611e6a565b6001600160a01b0382166115b55760405162461bcd60e51b815260206004820181905260248201527f4552433732313a206d696e7420746f20746865207a65726f20616464726573736044820152606401610407565b6000818152600260205260409020546001600160a01b03161561161a5760405162461bcd60e51b815260206004820152601c60248201527f4552433732313a20746f6b656e20616c7265616479206d696e746564000000006044820152606401610407565b6116286000838360016112cb565b6000818152600260205260409020546001600160a01b03161561168d5760405162461bcd60e51b815260206004820152601c60248201527f4552433732313a20746f6b656e20616c7265616479206d696e746564000000006044820152606401610407565b6001600160a01b038216600081815260036020908152604080832080546001019055848352600290915280822080546001600160a01b0319168417905551839291907fddf252ad1be2c89b69c2b068fc378daa952ba7f163c4a11628f55a4df523b3ef908290a45050565b6001600160e01b031981168114610d1357600080fd5b60006020828403121561172057600080fd5b813561172b816116f8565b9392505050565b60005b8381101561174d578181015183820152602001611735565b50506000910152565b6000815180845261176e816020860160208601611732565b601f01601f19169290920160200192915050565b60208152600061172b6020830184611756565b6000602082840312156117a757600080fd5b5035919050565b80356001600160a01b03811681146117c557600080fd5b919050565b600080604083850312156117dd57600080fd5b6117e6836117ae565b946020939093013593505050565b60008060006060848603121561180957600080fd5b611812846117ae565b9250611820602085016117ae565b9150604084013590509250925092565b60006020828403121561184257600080fd5b61172b826117ae565b86815260c06020820152600061186460c0830188611756565b82810360408401526118768188611756565b60608401969096525050608081019290925260a0909101529392505050565b600080604083850312156118a857600080fd5b6118b1836117ae565b9150602083013580151581146118c657600080fd5b809150509250929050565b634e487b7160e01b600052604160045260246000fd5b600080600080608085870312156118fd57600080fd5b611906856117ae565b9350611914602086016117ae565b925060408501359150606085013567ffffffffffffffff8082111561193857600080fd5b818701915087601f83011261194c57600080fd5b81358181111561195e5761195e6118d1565b604051601f8201601f19908116603f01168101908382118183101715611986576119866118d1565b816040528281528a602084870101111561199f57600080fd5b82602086016020830137600060208483010152809550505050505092959194509250565b600080604083850312156119d657600080fd5b6119df836117ae565b91506119ed602084016117ae565b90509250929050565b600181811c90821680611a0a57607f821691505b602082108103611a2a57634e487b7160e01b600052602260045260246000fd5b50919050565b6020808252602d908201527f4552433732313a2063616c6c6572206973206e6f7420746f6b656e206f776e6560408201526c1c881bdc88185c1c1c9bdd9959609a1b606082015260800190565b60008151611a8f818560208601611732565b9290920192915050565b693d913730b6b2911d101160b11b81528651600090611abf81600a850160208c01611732565b6a01016969027232a10119d160ad1b600a918401918201528751611aea816015840160208c01611732565b7f222c20226465736372697074696f6e223a20225468697320697320616e204e46601592909101918201527f542074686174206c6574732070656f706c6520706c617920696e20746865206760358201527f616d65204d657461766572736520536c6179657221222c2022696d616765223a605582015261101160f11b60758201528651611b7f816077840160208b01611732565b611c64611c54611c4e611c0f611c09611bef611be96077888a01017f222c202261747472696275746573223a205b207b202274726169745f7479706581527f223a20224865616c746820506f696e7473222c202276616c7565223a200000006020820152603d0190565b8d611a7d565b6d16101136b0bc2fbb30b63ab2911d60911b8152600e0190565b8a611a7d565b7f7d2c207b202274726169745f74797065223a202241747461636b2044616d616781526c032911610113b30b63ab2911d1609d1b6020820152602d0190565b87611a7d565b637d205d7d60e01b815260040190565b9a9950505050505050505050565b7f646174613a6170706c69636174696f6e2f6a736f6e3b6261736536342c000000815260008251611caa81601d850160208701611732565b91909101601d0192915050565b634e487b7160e01b600052603260045260246000fd5b601f8211156104a857600081815260208120601f850160051c81016020861015611cf45750805b601f850160051c820191505b81811015611d1357828155600101611d00565b505050505050565b815167ffffffffffffffff811115611d3557611d356118d1565b611d4981611d4384546119f6565b84611ccd565b602080601f831160018114611d7e5760008415611d665750858301515b600019600386901b1c1916600185901b178555611d13565b600085815260208120601f198616915b82811015611dad57888601518255948401946001909101908401611d8e565b5085821015611dcb5787850151600019600388901b60f8161c191681555b5050505050600190811b01905550565b608081526000611dee6080830187611756565b8281036020840152611e008187611756565b90508460408401528281036060840152611e1a8185611756565b979650505050505050565b60208082526025908201527f4552433732313a207472616e736665722066726f6d20696e636f72726563742060408201526437bbb732b960d91b606082015260800190565b60208082526032908201527f4552433732313a207472616e7366657220746f206e6f6e20455243373231526560408201527131b2b4bb32b91034b6b83632b6b2b73a32b960711b606082015260800190565b634e487b7160e01b600052601160045260246000fd5b808201808211156102d4576102d4611ebc565b600082611f0257634e487b7160e01b600052601260045260246000fd5b500490565b80820281158282048414176102d4576102d4611ebc565b606081526000611f316060830186611756565b60208301949094525060400152919050565b818103818111156102d4576102d4611ebc565b6001600160a01b0385811682528416602082015260408101839052608060608201819052600090611f8990830184611756565b9695505050505050565b600060208284031215611fa557600080fd5b815161172b816116f856fe4142434445464748494a4b4c4d4e4f505152535455565758595a6162636465666768696a6b6c6d6e6f707172737475767778797a303132333435363738392b2f4d696e746564204e465420772f20746f6b656e496420257320616e6420636861726163746572496e646578202573a264697066735822122019996a3c532f1a0dec211bc7bab0d94b5462f2f5d9c74f78c38b94f38fbde6f464736f6c63430008110033446f6e6520696e697469616c697a696e6720257320772f2048502025732c20696d67202573",
    "sourcePath": "/home/vend-zulqarnain/Web3/NFT GAME/contracts/MyEpicGame.sol",
    "compiler": {
        "name": "solc",
        "version": "0.8.17+commit.8df45f5f"
    },
    "functionHashes": {
        "approve(address,uint256)": "095ea7b3",
        "balanceOf(address)": "70a08231",
        "getApproved(uint256)": "081812fc",
        "isApprovedForAll(address,address)": "e985e9c5",
        "mintCharacterNFT(uint256)": "f8b81ef7",
        "name()": "06fdde03",
        "nftHolderAttributes(uint256)": "98da4c95",
        "nftHolders(address)": "7df124a1",
        "ownerOf(uint256)": "6352211e",
        "safeTransferFrom(address,address,uint256)": "42842e0e",
        "safeTransferFrom(address,address,uint256,bytes)": "b88d4fde",
        "setApprovalForAll(address,bool)": "a22cb465",
        "supportsInterface(bytes4)": "01ffc9a7",
        "symbol()": "95d89b41",
        "tokenURI(uint256)": "c87b56dd",
        "transferFrom(address,address,uint256)": "23b872dd"
    },
    "gasEstimates": {
        "creation": {
            "codeDepositCost": "1655200",
            "executionCost": "infinite",
            "totalCost": "infinite"
        },
        "external": {
            "approve(address,uint256)": "infinite",
            "balanceOf(address)": "2678",
            "getApproved(uint256)": "4792",
            "isApprovedForAll(address,address)": "infinite",
            "mintCharacterNFT(uint256)": "infinite",
            "name()": "infinite",
            "nftHolderAttributes(uint256)": "infinite",
            "nftHolders(address)": "2542",
            "ownerOf(uint256)": "2605",
            "safeTransferFrom(address,address,uint256)": "infinite",
            "safeTransferFrom(address,address,uint256,bytes)": "infinite",
            "setApprovalForAll(address,bool)": "26772",
            "supportsInterface(bytes4)": "534",
            "symbol()": "infinite",
            "tokenURI(uint256)": "infinite",
            "transferFrom(address,address,uint256)": "infinite"
        }
    }
}